:020000040800F2
:10000000005000208D1F0008A91C0008AF1C00082C
:10001000B51C0008BB1C0008C11C00080000000043
:10002000000000000000000000000000C71C0008E5
:10003000D31C000800000000DF1C0008EB1C0008B7
:10004000D51F0008D51F0008D51F0008D51F0008C0
:10005000D51F0008D51F0008D51F0008D51F0008B0
:10006000D51F0008D51F0008D51F0008D51F0008A0
:10007000D51F0008D51F0008D51F0008D51F000890
:10008000D51F0008D51F0008D51F0008D51F000880
:10009000D51F0008D51F0008D51F0008D51F000870
:1000A000D51F0008D51F0008D51F0008D51F000860
:1000B000F91C0008D51F0008D51F0008D51F00082F
:1000C000D51F0008D51F0008D51F0008D51F000840
:1000D000D51F0008D51F0008D51F0008D51F000830
:1000E0000D1D0008D51F0008D51F000800000000E6
:1000F0000000000000000000000000000000000000
:0C01000000000000000000005FF808F1A3
:10010C0010B5054C237833B9044B13B10448AFF345
:10011C0000800123237010BDC400002000000000EB
:10012C00A84A000808B5034B1BB103490348AFF3B9
:10013C00008008BD00000000C8000020A84A00088C
:10014C0080B582B000AF00237B6068E0384A7B68E2
:10015C0052F8232037497B6841F82320364A7B68C4
:10016C0052F8232032497B6841F82320786800F04C
:10017C008DF8024630497B6841F823202D4A7B6874
:10018C0052F823202A497B6851F823309A4243D1F4
:10019C00274A7B6852F8232027497B6851F8233083
:1001AC009A4239D1254A7B6852F8232022497B6830
:1001BC0051F823309A421BD01F4A7B6852F82320F7
:1001CC001E497B6841F823201B4A7B6852F8233078
:1001DC00002B21D11A4A7B6852F8232019497B68DD
:1001EC0041F82320184A7B68012142F8231013E0C0
:1001FC00144A7B6852F823305A1E12497B6841F826
:10020C002320104A7B6852F82330002B04D10B4A70
:10021C007B68012142F823107B6801337B607B688B
:10022C00022B93DD00BF00BF0837BD4680BD00BF69
:10023C000C000020000000201800002024000020EA
:10024C0030000020FC0000200801002080B483B0A6
:10025C0000AF78607B68022B0EDC0B4A7B6852F88F
:10026C002330012B06D1084A7B68002142F8231069
:10027C00012303E0002301E04FF0FF3318460C3755
:10028C00BD4680BC704700BF0801002080B582B01D
:10029C0000AF78607B68022B20DC7B68022B16D0C9
:1002AC007B68022B1CDC7B68002B03D07B68012B4A
:1002BC0006D015E010210E4802F0A0F9034612E01A
:1002CC004FF480610A4802F099F903460BE04FF4B1
:1002DC008071084802F092F9034604E000BF00E088
:1002EC0000BF4FF0FF3318460837BD4680BD00BF36
:1002FC00000C01400008014080B483B000AF78606E
:10030C0039607B68002B02D1064A3B6813607B681E
:10031C00012B02D1044A3B68136000BF0C37BD4669
:10032C0080BC7047280100202401002080B400AF5D
:10033C00064B1B68013B054A1360054B1B68013BD0
:10034C00034A136000BFBD4680BC704728010020E3
:10035C002401002080B483B000AF78607B68002B50
:10036C0002D1084B1B6807E07B68012B02D1064BBE
:10037C001B6801E04FF0FF3318460C37BD4680BCBC
:10038C00704700BF280100202401002098B500AF61
:10039C00184B01221A6001F0F7FC00F0EFFB03464A
:1003AC00154A136000F0E0FB0346144A136000F09A
:1003BC00E5FB044600F0D8FB03461946204600F046
:1003CC00B1FF0F4B1B68002B0ADC0022FA210D48F1
:1003DC0001F0F4FA0A4B1B680133094A136007E079
:1003EC00074B00221A600022FA21074801F0E6FAB6
:1003FC0000BF98BDE8000020280100202401002047
:10040C00E0000020990300081904000880B584B0AE
:10041C0000AF434B1B68062B01D100F04EFF01F0DF
:10042C00CFFC0121002000F052FF0021012000F040
:10043C004EFF3C4B1B68092B07DC3A4B1A683B46BA
:10044C003949184603F0A6FF06E0364B1A683B46BE
:10045C003649184603F09EFF3B46184600F018FF3D
:10046C00304B1B68092B07DC314B1A683B46314972
:10047C00184603F08FFF06E02D4B1A683B462E49B9
:10048C00184603F087FF0121002000F020FF3B46B7
:10049C00184600F0FDFE224B0A221A60274B1B68FF
:1004AC00022B0ADC0022FA21254801F087FA234BA3
:1004BC001B680133214A13602DE0204B00221A6087
:1004CC00FFF734FF174B1B68194A12681146184680
:1004DC0000F028FF164B1B68002B17D10022FA21C5
:1004EC00184801F06BFA00F053FB0346104A1360F6
:1004FC0000F04EFB03460B4A13600A4B1B680C4A78
:10050C0012681146184600F00DFF04E00022FA2193
:10051C000B4801F053FA00BF1037BD4680BD00BF39
:10052C00E800002028010020C04A0008D04A00083A
:10053C0024010020E04A0008F04A0008E0000020F6
:10054C00190400085505000880B584B000AF434B72
:10055C001B68072B01D100F0B0FE01F04DFC01210E
:10056C00002000F0B4FE0021012000F0B0FE3C4B56
:10057C001B68092B07DC3A4B1A683B46394918466D
:10058C0003F008FF06E0364B1A683B46364918461E
:10059C0003F000FF3B46184600F07AFE304B1B6818
:1005AC00092B07DC314B1A683B463149184603F0DE
:1005BC00F1FE06E02D4B1A683B462E49184603F017
:1005CC00E9FE0121002000F082FE3B46184600F0B7
:1005DC005FFE224B0B221A60274B1B68022B0ADC96
:1005EC000022FA21254801F0E9F9234B1B6801335D
:1005FC00214A13602DE0204B00221A60FFF796FE73
:10060C00174B1B68194A12681146184600F08AFEEF
:10061C00164B1B68002B17D10022FA21184801F049
:10062C00CDF900F0A1FA03460D4A136000F0A6FACA
:10063C0003460E4A13600A4B1B680C4A126811469B
:10064C00184600F06FFE04E00022FA210B4801F07E
:10065C00B5F900BF1037BD4680BD00BFE8000020D3
:10066C0028010020C04A0008D04A000824010020BC
:10067C00E04A0008F04A0008E00000205505000898
:10068C009106000880B584B000AF434B1B68082B63
:10069C0001D100F012FE01F0CBFB0121002000F093
:1006AC0016FE0021012000F012FE3C4B1B68092BAA
:1006BC0007DC3A4B1A683B463949184603F06AFE88
:1006CC0006E0364B1A683B463649184603F062FE84
:1006DC003B46184600F0DCFD304B1B68092B07DC51
:1006EC00314B1A683B463149184603F053FE06E07D
:1006FC002D4B1A683B462E49184603F04BFE012140
:10070C00002000F0E4FD3B46184600F0C1FD224BF2
:10071C000C221A60274B1B68022B0ADC0022FA21E0
:10072C00254801F04BF9234B1B680133214A136018
:10073C002DE0204B00221A60FFF7F8FD174B1B68C9
:10074C00194A12681146184600F0ECFD134B1B6851
:10075C00002B17D10022FA21184801F02FF900F0D4
:10076C0017FA03460D4A136000F012FA03460E4ABC
:10077C0013600A4B1B680C4A12681146184600F0AD
:10078C00D1FD04E00022FA210B4801F017F900BF5B
:10079C001037BD4680BD00BFE800002028010020B6
:1007AC00C04A0008D04A000824010020E04A000892
:1007BC00F04A0008E000002091060008CD07000870
:1007CC0080B584B000AF434B1B68092B01D100F0FE
:1007DC0074FD01F049FB0121002000F078FD00219F
:1007EC00012000F074FD3C4B1B68092B07DC3A4BD5
:1007FC001A683B463949184603F0CCFD06E0364BE7
:10080C001A683B463649184603F0C4FD3B46184669
:10081C0000F03EFD304B1B68092B07DC314B1A688E
:10082C003B463149184603F0B5FD06E02D4B1A68DE
:10083C003B462E49184603F0ADFD0121002000F087
:10084C0046FD3B46184600F023FD224B0D221A6054
:10085C00274B1B68022B0ADC0022FA21254801F0E9
:10086C00ADF8234B1B680133214A13602DE0204B5C
:10087C0000221A60FFF75AFD174B1B68194A1268C1
:10088C001146184600F04EFD134B1B68002B17D178
:10089C000022FA21184801F091F800F06FF9034694
:1008AC000D4A136000F060F903460E4A13600A4BC0
:1008BC001B680C4A12681146184600F033FD04E020
:1008CC000022FA210B4801F079F800BF1037BD4621
:1008DC0080BD00BFE800002028010020C04A0008AD
:1008EC00D04A000824010020E04A0008F04A000821
:1008FC00E0000020CD0700081904000890B585B071
:10090C0000AF0121002000F0E2FC3B461F491846D5
:10091C0003F040FD3B46184600F0BAFC00210120D4
:10092C0000F0D5FC3B461A49184603F033FD3B4614
:10093C00184600F0ADFC01F043FA042000F0E9FC8D
:10094C00002242F21071134801F038F800F016F949
:10095C00034619460020FFF7CFFC00F005F90346CB
:10096C0019460120FFF7C8FC0020FFF7F3FC0446F2
:10097C000120FFF7EFFC03461946204600F0D2FC9D
:10098C0000F00CFD00BF1437BD4690BD004B0008B5
:10099C000C4B00081904000890B585B000AF01217C
:1009AC00002000F094FC3B461E49184603F0F2FC74
:1009BC003B46184600F06CFC0021012000F087FC3F
:1009CC003B461949184603F0E5FC3B46184600F037
:1009DC005FFC01F011FA042000F09BFC002242F2B3
:1009EC001071124800F0EAFF00F0D2F803461946E5
:1009FC000020FFF781FC00F0CBF8034619460120DC
:100A0C00FFF77AFC0020FFF7A5FC04460120FFF756
:100A1C00A1FC03461946204600F084FC00BF1437A5
:100A2C00BD4690BD004B00081C4B00085505000846
:100A3C0090B585B000AF0121002000F048FC3B468A
:100A4C001F49184603F0A6FC3B46184600F020FC54
:100A5C000021012000F03BFC3B461A49184603F0EC
:100A6C0099FC3B46184600F013FC01F0E1F9042018
:100A7C0000F04FFC002242F21071134800F09EFF70
:100A8C0000F072F8034619460020FFF735FC00F021
:100A9C0075F8034619460120FFF72EFC0020FFF7DE
:100AAC0059FC04460120FFF755FC03461946204625
:100ABC0000F038FC00F072FC00BF1437BD4690BD4E
:100ACC00004B00082C4B00089106000890B585B02F
:100ADC0000AF0121002000F0FAFB3B461F491846ED
:100AEC0003F058FC3B46184600F0D2FB00210120D5
:100AFC0000F0EDFB3B461A49184603F04BFC3B4615
:100B0C00184600F0C5FB01F0AFF9042000F001FC21
:100B1C00002242F21071134800F050FF00F038F838
:100B2C00034619460020FFF7E7FB00F031F80346B7
:100B3C0019460120FFF7E0FB0020FFF70BFC0446F1
:100B4C000120FFF707FC03461946204600F0EAFB9C
:100B5C0000F024FC00BF1437BD4690BD004B0008CC
:100B6C003C4B0008CD07000880B400AF024B1B685B
:100B7C001846BD4680BC70473C00002080B400AFD6
:100B8C00024B1B681846BD4680BC704740000020D5
:100B9C0080B400AF024B1B681846BD4680BC704742
:100BAC004400002080B584B000AF0121002000F08B
:100BBC008EFB3B461F49184603F0ECFB3B461846A0
:100BCC0000F066FB1C4B1B68092B07DC1A4B1A68E0
:100BDC003B461A49184603F0DDFB06E0164B1A6833
:100BEC003B461749184603F0D5FB0021012000F0C5
:100BFC006EFB3B46184600F04BFB124B1B685A1C15
:100C0C0010490A60002B02D101F04AF908E00D4BA3
:100C1C001B68002B04D001F097F90A4B00221A60D4
:100C2C000022FA21084800F0C9FE00BF1037BD466B
:100C3C0080BD00BF4C4B00084C000020584B0008F6
:100C4C00684B0008E4000020B10B000880B584B0AC
:100C5C0000AF0121002000F03AFB3B461F4918462B
:100C6C0003F098FB3B46184600F012FB1C4B1B682C
:100C7C00092B07DC1B4B1A683B461B49184603F033
:100C8C0089FB06E0174B1A683B461849184603F0D7
:100C9C0081FB0021012000F01AFB3B46184600F0B6
:100CAC00F7FA134B1B685A1C11490A60002B02D12E
:100CBC0001F02EF908E00E4B1B68002B04D001F05C
:100CCC0043F90B4B00221A600022FA21094800F06C
:100CDC0075FE00BF1037BD4680BD00BF784B0008C5
:100CEC004C00002050000020884B0008984B000856
:100CFC00E4000020590C000880B584B000AF01213D
:100D0C00002000F0E4FA3B461F49184603F042FB72
:100D1C003B46184600F0BCFA1C4B1B68092B07DC41
:100D2C001B4B1A683B461B49184603F033FB06E085
:100D3C00174B1A683B461849184603F02BFB002149
:100D4C00012000F0C4FA3B46184600F0A1FA134B00
:100D5C001B685A1C11490A60002B02D101F0BCF827
:100D6C0008E00E4B1B68002B04D001F0EDF80B4B88
:100D7C0000221A600022FA21094800F01FFE00BF71
:100D8C001037BD4680BD00BFA84B00084C000020AA
:100D9C0048000020B84B0008C84B0008E4000020B5
:100DAC00050D000880B500AF0020FFF74FFA034691
:100DBC00002B00F096804D4B1B68063B0A2B00F273
:100DCC00928001A252F823F0D50E0008D50E00082F
:100DDC00D50E0008D50E0008010E00081B0E0008E9
:100DEC00350E00084F0E0008690E00088D0E000825
:100DFC00B10E000800F040FE3C4B06221A600022A7
:100E0C000A213B4800F0DAFD00F057FA6CE000F0E4
:100E1C0033FE364B07221A6000220A21354800F0B7
:100E2C00CDFD00F04AFA5FE000F026FE2F4B0822C1
:100E3C001A6000220A21304800F0C0FD00F03DFA93
:100E4C0052E000F019FE294B09221A6000220A21F7
:100E5C002A4800F0B3FD00F030FA45E000F00CFE3B
:100E6C00224B0F221A60264B00221A6000F096FAD1
:100E7C0000220A21234800F0A1FD00F01EFA33E005
:100E8C0000F0FAFD194B10221A601D4B00221A605B
:100E9C0000F084FA00220A211B4800F08FFD00F0BC
:100EAC000CFA21E000F0E8FD104B01221A60144B03
:100EBC0000221A6000F072FA00220A21134800F096
:100ECC007DFD00F0FAF90FE000F0D6FD074B0E2285
:100EDC001A6000220A210E4800F070FD00F0EDF9B6
:100EEC0002E000BF00E000BF00BF80BDE8000020B2
:100EFC0009090008A50900083D0A0008D90A0008DC
:100F0C00E4000020590C0008050D000899030008A6
:100F1C00B10B000880B500AF0120FFF797F903462D
:100F2C00002B7FD0424B1B68063B0A2B7CD801A2BE
:100F3C0052F823F06D0F0008830F0008990F00087A
:100F4C00AF0F0008351000083510000835100008E8
:100F5C0035100008C50F0008E90F00080D10000837
:100F6C00334B07221A6000F087FD00220A2131481A
:100F7C0000F024FD59E02E4B08221A6000F07CFD95
:100F8C0000220A212C4800F019FD4EE0284B0922C2
:100F9C001A6000F071FD00220A21284800F00EFDB5
:100FAC0043E0234B06221A6000F066FD00220A2162
:100FBC00234800F003FD38E0224B1B68622B03DC56
:100FCC00204B1B68013300E000231E4A13601D4BAD
:100FDC001B680221184600F0A5F926E01A4B1B6885
:100FEC00622B03DC184B1B68013300E00023164A0C
:100FFC001360144B1B680221184600F093F914E09F
:10100C00124B1B68622B03DC104B1B68013300E096
:10101C0000230E4A13600D4B1B680221184600F08A
:10102C0081F902E000BF00E000BF00BF80BD00BF3F
:10103C00E8000020A50900083D0A0008D90A0008AC
:10104C00090900084C000020500000204800002036
:10105C0080B500AF0220FFF7F9F80346002B76D0DD
:10106C003D4B1B68102B4BD0102B72DC0E2B02D07F
:10107C000F2B27D06DE0394B1A68394B1B68D31AEC
:10108C00002B02DA374B1B6801E0344B1B68354AE6
:10109C001360344B1A68344B1B689A4202D12F4BA5
:1010AC001B6801E02F4B1B682C4A13602D4B1A68F0
:1010BC002B4B1B68D31A2D4A13602C4B1B682C4AE4
:1010CC00136047E0284B1A68284B1B681344632BAA
:1010DC0002DD234B1B6801E0234B1B68204A136085
:1010EC001F4B1B68204A1360204B1A681C4B1B6853
:1010FC0013441C4A13601B4B1B68184A136029E0ED
:10110C00164B1A68164B1B68D31A002B02DA154BB8
:10111C001B6801E0114B1B68124A1360114B1A68D3
:10112C00114B1B689A4202D10C4B1B6801E00D4B12
:10113C001B680A4A13600B4B1A68094B1B68D31ABD
:10114C000A4A1360094B1B68094A136002E000BF8E
:10115C0000E000BF00BF80BDE80000204C00002074
:10116C004400002040000020500000203C000020E3
:10117C004800002080B586B002AF0346FB71FB79B6
:10118C0023F00F03FB73FB791B01BB73FB7B43F059
:10119C000C03DBB23B72FB7B43F00803DBB27B72CC
:1011AC00BB7B43F00C03DBB2BB72BB7B43F008038D
:1011BC00DBB2FB7207F10802642300930423422183
:1011CC00034801F0C9FB00BF1037BD4680BD00BF0E
:1011DC002C01002080B586B002AF0346FB71FB7971
:1011EC0023F00F03FB73FB791B01BB73FB7B43F0F9
:1011FC000D03DBB23B72FB7B43F00903DBB27B726A
:10120C00BB7B43F00D03DBB2BB72BB7B43F009032A
:10121C00DBB2FB7207F10802642300930423422122
:10122C00034801F099FB00BF1037BD4680BD00BFDD
:10123C002C01002080B500AF3320FFF79BFF32203C
:10124C00FFF798FF322000F023FF2820FFF792FFD2
:10125C00322000F01DFF0120FFF78CFF322000F040
:10126C0017FF0620FFF786FF322000F011FF0C203D
:10127C00FFF780FF322000F00BFF0220FFF77AFF10
:10128C00322000F005FF8020FFF774FF00BF80BD07
:10129C0080B582B000AF786006E07B685A1C7A603B
:1012AC001B781846FFF796FF7B681B78002BF4D150
:1012BC0000BF00BF0837BD4680BD80B500AF012020
:1012CC00FFF758FF322000F0E3FE00BF80BD80B571
:1012DC0084B000AF786039607B68002B08D17B68E4
:1012EC00DAB23B68DBB21344DBB27F33FB7308E04A
:1012FC003B68DBB24033DBB25BB263F07F035BB2C3
:10130C00FB73FB7B1846FFF735FF00BF1037BD465C
:10131C0080BD80B483B000AF786000BF0C37BD4691
:10132C0080BC704780B483B000AF786039607B6854
:10133C00184A82FB03129210DB17D31A164A136059
:10134C007968144B83FB01239A10CB17D21A1346DE
:10135C009B0013445B00CA1A0F4B5A603B680D4A42
:10136C0082FB03129210DB17D31A0B4A9360396875
:10137C00084B83FB01239A10CB17D21A13469B0000
:10138C0013445B00CA1A044BDA6000BF0C37BD462D
:10139C0080BC7047676666661401002080B400AF9D
:1013AC00034B00221A6000BFBD4680BC704700BFD3
:1013BC00EC00002080B500AF2021024801F04DF96F
:1013CC0000BF80BD0008014080B500AF00F0FEFDFD
:1013DC0000F040F800F024F900F0F8F800F0AAF85A
:1013EC0000F07AF8144802F06DFAFFF723FF00F0D2
:1013FC0017FA4FF47A724FF4FA61104800F0DEFAE3
:10140C000A22FA210E4800F0D9FA0A22FA210D48D4
:10141C0000F0D4FA0A22FA210B4800F0CFFA0A2283
:10142C00FA210A4800F0CAFA00220A21084800F002
:10143C00C5FA00F079FAFCE780010020C11300081E
:10144C005D1000084D010008210F0008B10D0008C7
:10145C009903000880B590B000AF07F1180328225B
:10146C000021184602F0D8FE3B1D00221A605A607B
:10147C009A60DA601A610223BB610123BB621023FC
:10148C00FB6202237B630023BB634FF46013FB639B
:10149C0007F11803184601F0B7FD0346002B01D0E5
:1014AC0000F078F90F237B600223BB60A023FB6064
:1014BC004FF480633B6100237B613B1D0221184686
:1014CC0002F022F80346002B01D000F063F900BFB4
:1014DC004037BD4680BD000080B500AF124B134AAB
:1014EC001A60114B124A5A600F4B00229A600E4B35
:1014FC000022DA600C4B4FF480421A610A4B002236
:10150C005A61094B00229A61074B0022DA61064BA3
:10151C0000221A62044801F0DBF80346002B01D0CC
:10152C0000F038F900BF80BD2C01002000540040B1
:10153C00A086010080B586B000AF07F10803002239
:10154C001A605A609A60DA603B4600221A605A6050
:10155C001D4B4FF080421A601B4B41F63F725A6094
:10156C00194B00229A60184B0922DA60164B0022A4
:10157C001A61154B00229A61134802F053F9034685
:10158C00002B01D000F006F94FF48053BB6007F13B
:10159C00080319460C4802F0D7FA0346002B01D079
:1015AC0000F0F8F800233B6000237B603B461946B3
:1015BC00054802F0B9FC0346002B01D000F0EAF814
:1015CC0000BF1837BD4680BD8001002080B500AF3C
:1015DC00114B124A1A60104B4FF4E1325A600E4B09
:1015EC0000229A600C4B0022DA600B4B00221A612D
:1015FC00094B0C225A61084B00229A61064B0022BF
:10160C00DA61054802F000FD0346002B01D000F022
:10161C00C1F800BF80BD00BFC801002000440040DD
:10162C0080B588B000AF07F1100300221A605A6031
:10163C009A60DA604D4B9B694C4A43F010039361FE
:10164C004A4B9B6903F01003FB60FB68474B9B699B
:10165C00464A43F020039361444B9B6903F02003FB
:10166C00BB60BB68414B9B69404A43F004039361E8
:10167C003E4B9B6903F004037B607B683B4B9B698F
:10168C003A4A43F008039361384B9B6903F0080313
:10169C003B603B6800222021354800F0C6FF002249
:1016AC008021344800F0C1FF00226821324800F04C
:1016BC00BCFF4FF400533B61304B7B610023BB619B
:1016CC0007F1100319462B4800F014FE20233B6150
:1016DC0001237B610023BB610223FB6107F1100333
:1016EC001946234800F006FE4FF482633B61002349
:1016FC007B610123BB6107F1100319461E4800F002
:10170C00F9FD80233B6101237B610023BB61022334
:10171C00FB6107F110031946164800F0EBFD4FF47E
:10172C0040733B6100237B610123BB6107F1100314
:10173C0019460F4800F0DEFD68233B6101237B61F5
:10174C000023BB610223FB6107F1100319460A4811
:10175C0000F0D0FD00220021282000F094FD28206C
:10176C0000F0ADFD00BF2037BD4680BD001002402B
:10177C000008014000100140000C01400000111055
:10178C0080B582B000AF786000F060F800BF083719
:10179C00BD4680BD80B400AF72B600BFFEE700004E
:1017AC0080B483B000AF0346FB71FB79092B30D8B2
:1017BC00FA791A4913469B0013449B000B440022F0
:1017CC001A60FA79154913469B0013449B000B448D
:1017DC00043300221A60FA79104913469B00134413
:1017EC009B000B44083300221A60FA790B4913460C
:1017FC009B0013449B000B440C3300221A70FA79A3
:10180C00064913469B0013449B000B4410330022E3
:10181C001A6000BF0C37BD4680BC70471002002018
:10182C0080B582B000AF0023FB7106E0FB7918464F
:10183C00FFF7B6FFFB790133FB71FB79092BF5D967
:10184C0000BF00BF0837BD4680BD000080B483B028
:10185C0000AF0023FB715CE0FA79324913469B0020
:10186C0013449B000B441B68002B4FD0FA792D4975
:10187C0013469B0013449B000B4404331B68002B42
:10188C0032D1FA79274913469B0013449B000B4431
:10189C000C331B78FA790133D8B2224913469B00DA
:1018AC0013449B000B440C3302461A70FA791D4901
:1018BC0013469B0013449B000B4408331B68002BFE
:1018CC0024D0F979FA7917480B469B000B449B00FE
:1018DC00034408331968134813469B0013449B00B8
:1018EC0003440433196011E0FA790E4913469B0046
:1018FC0013449B000B4404331B68591E09481346C0
:10190C009B0013449B00034404331960FB7901339F
:10191C00FB71FB79092B9FD900BF00BF0C37BD466B
:10192C0080BC70471002002080B582B000AF00234D
:10193C00FB7139E0FA79204913469B0013449B0054
:10194C000B440C331B78002B2BD0FA791A49134615
:10195C009B0013449B000B441B689847FA7916496B
:10196C0013469B0013449B000B440C331B78013B28
:10197C00D8B2114913469B0013449B000B440C3303
:10198C0002461A70FA790C4913469B0013449B00CB
:10199C000B4408331B68002B03D1FB791846FFF767
:1019AC00FFFEFB790133FB71FB79092BC2D900BF18
:1019BC0000BF0837BD4680BD1002002080B487B040
:1019CC0000AFF860B9607A600023FB7502E0FB7D24
:1019DC000133FB75FA7D264913469B0013449B008B
:1019EC000B441B68002B02D0FB7D092BEFD9FB7D30
:1019FC00092B38D8FA7D1E4913469B0013449B00D3
:101A0C000B44FA681A60FA7DBB681A49A1FB0313F0
:101A1C00D908174813469B0013449B000344043316
:101A2C001960FA7D7B681349A1FB0313D908104890
:101A3C0013469B0013449B00034408331960FA7D42
:101A4C000B4913469B0013449B000B440C330022A0
:101A5C001A70FA7DF97D064813469B0013449B00CF
:101A6C0003441033196000BF1C37BD4680BC70475F
:101A7C0010020020CDCCCCCC80B582B000AF0023BE
:101A8C00FB711CE0FA79124913469B0013449B002E
:101A9C000B4408331B68002B0ED1FA790C49134602
:101AAC009B0013449B000B4404331B68002B03D096
:101ABC00FB791846FFF774FEFB790133FB71FB7958
:101ACC00092BDFD900BF00BF0837BD4680BD00BF62
:101ADC001002002080B485B000AF154B9B69144AEE
:101AEC0043F001039361124B9B6903F00103BB604C
:101AFC00BB680F4BDB690E4A43F08053D3610C4B30
:101B0C00DB6903F080537B607B680A4B5B68FB608E
:101B1C00FB6823F0E063FB60FB6843F00073FB6041
:101B2C00044AFB68536000BF1437BD4680BC704745
:101B3C00001002400000014080B58AB000AF786010
:101B4C0007F1140300221A605A609A60DA607B680D
:101B5C001B681D4A934232D11C4B9B691B4A43F0B4
:101B6C0008039361194B9B6903F008033B613B69C4
:101B7C004FF440737B611223BB6103233B6207F17B
:101B8C0014031946124800F0B5FB124B5B687B62DC
:101B9C007B6A43F0E0637B627B6A43F002037B6207
:101BAC000C4A7B6A5360094BDB69084A43F4001307
:101BBC00D361064BDB6903F40013FB60FB6800BFC9
:101BCC002837BD4680BD00BF0054004000100240C5
:101BDC00000C01400000014080B584B000AF78607B
:101BEC007B681B68B3F1804F13D10C4BDB690B4A3C
:101BFC0043F00103D361094BDB6903F00103FB6084
:101C0C00FB68002200211C2000F03DFB1C2000F092
:101C1C0056FB00BF1037BD4680BD00BF0010024010
:101C2C0080B588B000AF786007F1100300221A600D
:101C3C005A609A60DA607B681B68154A934223D11C
:101C4C00144BDB69134A43F40033D361114BDB694A
:101C5C0003F40033FB60FB680E4B9B690D4A43F0A9
:101C6C00040393610B4B9B6903F00403BB60BB68DB
:101C7C000C233B6102237B610223FB6107F1100300
:101C8C001946054800F036FB00BF2037BD4680BD25
:101C9C0000440040001002400008014080B400AF36
:101CAC00FEE780B400AFFEE780B400AFFEE780B47F
:101CBC0000AFFEE780B400AFFEE780B400AF00BF1A
:101CCC00BD4680BC704780B400AF00BFBD4680BC31
:101CDC00704780B400AF00BFBD4680BC704780B574
:101CEC0000AF00F0B9F900BF80BD000080B500AFB7
:101CFC00024801F039FE00BF80BD00BF800100200A
:101D0C0080B500AF4FF4005000F0C0FC00BF80BDA8
:101D1C0080B586B000AF7860144A154BD31A7B613E
:101D2C007B693B61134B1B68002B02D1114B124A90
:101D3C001A60104B1A687B6813443A699A4207D2AE
:101D4C0002F040FA03460C221A604FF0FF3309E010
:101D5C00084B1B68FB60074B1A687B681344054AE9
:101D6C001360FB6818461837BD4680BD0050002034
:101D7C0000040000F0000020F002002080B400AF4E
:101D8C0000BFBD4680BC704780B500AF00228021EB
:101D9C00094800F04AFC00224021084800F045FCAC
:101DAC0000220821054800F040FC002220210348B5
:101DBC0000F03BFC00BF80BD00100140000C014056
:101DCC0080B500AF01224021094800F02EFC012211
:101DDC008021084800F029FC00222021044800F052
:101DEC0024FC01220821024800F01FFC00BF80BD2A
:101DFC00000C01400010014080B500AF01224021D1
:101E0C00094800F012FC01228021084800F00DFC6A
:101E1C0001222021044800F008FC0022082102487D
:101E2C0000F003FC00BF80BD000C0140001001401D
:101E3C0080B500AF00224021094800F0F6FB0122DA
:101E4C008021084800F0F1FB01222021044800F019
:101E5C00ECFB01220821024800F0E7FB00BF80BD2B
:101E6C00000C01400010014080B500AF0122402160
:101E7C00094800F0DAFB00228021084800F0D5FB6D
:101E8C0001222021044800F0D0FB01220821024845
:101E9C0000F0CBFB00BF80BD000C014000100140E6
:101EAC0080B500AF01224021094800F0BEFB0122A1
:101EBC008021084800F0B9FB01222021044800F0E1
:101ECC00B4FB01220821024800F0AFFB00BF80BD2B
:101EDC00000C01400010014080B500AF00224021F1
:101EEC00094800F0A2FB01228021084800F09DFB6C
:101EFC0000222021044800F098FB0122082102480E
:101F0C0000F093FB00BF80BD000C014000100140AD
:101F1C0080B500AF01224021094800F086FB002269
:101F2C008021084800F081FB01222021044800F0A8
:101F3C007CFB00220821024800F077FB00BF80BD2B
:101F4C00000C01400010014080B500AF0022802140
:101F5C00094800F06AFB00224021084800F065FBAC
:101F6C0000220821054800F060FB002220210348D4
:101F7C0000F05BFB00BF80BD00100140000C014075
:101F8C00FFF7FCFE0B480C490C4A002302E0D45826
:101F9C00C4500433C4188C42F9D3094A094C0023A9
:101FAC0001E013600432A242FBD302F011F9FFF7F7
:101FBC000BFA704700000020C4000020404C0008C1
:101FCC00C4000020EC020020FEE7000080B500AF4A
:101FDC00084B1B68074A43F010031360032000F002
:101FEC0047F9002000F008F8FFF774FD00231846AD
:101FFC0080BD00BF0020024080B582B000AF786089
:10200C00124B1A68124B1B7819464FF47A73B3FBB8
:10201C00F1F3B2FBF3F3184600F05FF90346002B23
:10202C0001D001230EE07B680F2B0AD800227968BF
:10203C004FF0FF3000F027F9064A7B68136000234D
:10204C0000E0012318460837BD4680BD540000202F
:10205C005C0000205800002080B400AF054B1B78BA
:10206C001A46054B1B681344034A136000BFBD4658
:10207C0080BC70475C000020D802002080B400AF08
:10208C00024B1B681846BD4680BC7047D802002026
:10209C0080B584B000AF7860FFF7F0FFB8607B6864
:1020AC00FB60FB68B3F1FF3F05D00A4B1B781A4667
:1020BC00FB681344FB6000BFFFF7E0FF0246BB6800
:1020CC00D31AFA689A42F7D800BF00BF1037BD4642
:1020DC0080BD00BF5C00002080B485B000AF78608C
:1020EC007B6803F00703FB600C4BDB68BB60BA68D2
:1020FC004FF6FF031340BB60FB681A02BB68134327
:10210C0043F0BF6343F40033BB60044ABB68D36045
:10211C0000BF1437BD4680BC704700BF00ED00E027
:10212C0080B400AF044BDB681B0A03F007031846AE
:10213C00BD4680BC704700BF00ED00E080B483B0AA
:10214C0000AF0346FB7197F90730002B0BDBFB79D3
:10215C0003F01F02064997F907305B09012000FACA
:10216C0002F241F8232000BF0C37BD4680BC7047FB
:10217C0000E100E080B483B000AF03463960FB712E
:10218C0097F90730002B0ADB3B68DAB20C4997F958
:10219C0007301201D2B20B4483F800230AE03B68EB
:1021AC00DAB20849FB7903F00F03043B1201D2B2F7
:1021BC000B441A7600BF0C37BD4680BC704700BF7D
:1021CC0000E100E000ED00E080B489B000AFF86001
:1021DC00B9607A60FB6803F00703FB61FB69C3F12C
:1021EC000703042B28BF0423BB61FB690433062BB4
:1021FC0002D9FB69033B00E000237B614FF0FF3207
:10220C00BB6902FA03F3DA43BB681A407B699A4054
:10221C004FF0FF317B6901FA03F3D9437B680B4024
:10222C00134318462437BD4680BC704780B582B036
:10223C0000AF78607B68013BB3F1807F01D3012351
:10224C000FE00A4A7B68013B53600F214FF0FF30CF
:10225C00FFF790FF054B00229A60044B07221A608F
:10226C00002318460837BD4680BD00BF10E000E0D3
:10227C0080B582B000AF78607868FFF72DFF00BFA3
:10228C000837BD4680BD80B586B000AF0346B96047
:10229C007A60FB7300237B61FFF742FF78617A68F9
:1022AC00B9687869FFF790FF024697F90F3011462D
:1022BC001846FFF75FFF00BF1837BD4680BD80B5DD
:1022CC0082B000AF0346FB7197F907301846FFF751
:1022DC0035FF00BF0837BD4680BD80B582B000AF6A
:1022EC0078607868FFF7A2FF034618460837BD46AA
:1022FC0080BD000080B48BB000AF786039600023E3
:10230C007B6200233B6269E101227B6A02FA03F3E0
:10231C00FB613B681B68FA691340BB61BA69FB69D6
:10232C009A4240F058813B685B689A4A93425ED06F
:10233C00984A934275D8984A934258D0964A9342F9
:10234C006FD8964A934252D0944A934269D8944A91
:10235C0093424CD0924A934263D8924A934246D0CD
:10236C00904A93425DD8122B2AD8122B59D801A22D
:10237C0052F823F0FB230008D5230008E7230008BC
:10238C00292400082F2400082F2400082F240008DB
:10239C002F2400082F2400082F2400082F240008C5
:1023AC002F2400082F2400082F2400082F240008B5
:1023BC002F2400082F240008DD230008F123000837
:1023CC00794A934213D02CE03B68DB683B6229E0EE
:1023DC003B68DB6804333B6224E03B68DB68083312
:1023EC003B621FE03B68DB680C333B621AE03B68E6
:1023FC009B68002B02D104233B6213E03B689B6873
:10240C00012B05D108233B627B68FA691A6109E04C
:10241C0008233B627B68FA695A6103E000233B6244
:10242C0000E000BFBB69FF2B01D87B6801E07B6833
:10243C0004337B61BB69FF2B02D87B6A9B0002E0F3
:10244C007B6A083B9B003B617B691A680F213B69E7
:10245C0001FA03F3DB431A40396A3B6901FA03F3CF
:10246C001A437B691A603B685B6803F08053002B4E
:10247C0000F0B1804D4B9B694C4A43F001039361D2
:10248C004A4B9B6903F00103BB60BB68484A7B6AFB
:10249C009B08023352F82330FB607B6A03F0030382
:1024AC009B000F2202FA03F3DB43FA681340FB6034
:1024BC007B68404A934213D07B683F4A93420DD0CD
:1024CC007B683E4A934207D07B683D4A934201D1D8
:1024DC00032306E0042304E0022302E0012300E0CE
:1024EC0000237A6A02F0030292009340FA681343C5
:1024FC00FB602F497B6A9B080233FA6841F8232062
:10250C003B685B6803F48013002B06D02D4B9A6854
:10251C002C49BB6913438B6006E02A4B9A68BB6954
:10252C00DB43284913408B603B685B6803F4001362
:10253C00002B06D0234BDA682249BB691343CB60CE
:10254C0006E0204BDA68BB69DB431E491340CB60C5
:10255C003B685B6803F40033002B06D0194B5A68B8
:10256C001849BB6913434B6006E0164B5A68BB69AC
:10257C00DB43144913404B603B685B6803F48033C6
:10258C00002B21D00F4B1A680E49BB6913430B600B
:10259C0021E000BF000032100000311000002210BA
:1025AC000000211000001210000011100010024059
:1025BC000000014000080140000C014000100140E7
:1025CC0000140140000401400B4B1A68BB69DB434B
:1025DC00094913400B607B6A01337B623B681A68C4
:1025EC007B6A22FA03F3002B7FF48EAE00BF00BF90
:1025FC002C37BD4680BC70470004014080B485B0C8
:10260C0000AF78600B467B807B689A687B881340B0
:10261C00002B02D00123FB7301E00023FB73FB7B37
:10262C0018461437BD4680BC704780B483B000AFE9
:10263C0078600B467B8013467B707B78002B03D035
:10264C007A887B681A6103E07B881A047B681A61BC
:10265C0000BF0C37BD4680BC704780B485B000AF5E
:10266C0078600B467B807B68DB68FB607A88FB6854
:10267C0013401A04FB68D9437B880B401A437B68D0
:10268C001A6100BF1437BD4680BC704780B582B05C
:10269C0000AF0346FB80084B5A69FB881340002BA4
:1026AC0006D0054AFB885361FB88184600F006F8F3
:1026BC0000BF0837BD4680BD0004014080B483B024
:1026CC0000AF0346FB8000BF0C37BD4680BC704793
:1026DC0080B584B000AF78607B68002B01D10123FA
:1026EC002BE17B6893F83D30DBB2002B06D17B6885
:1026FC00002283F83C207868FFF71EFA7B682422BE
:10270C0083F83D207B681B681A687B681B6822F085
:10271C0001021A607B681B681A687B681B6842F4AC
:10272C0000421A607B681B681A687B681B6822F47D
:10273C0000421A6001F030F8F8607B685B68814AEF
:10274C00934207D8FB68804A934294BF012300232D
:10275C00DBB206E0FB687D4A934294BF0123002361
:10276C00DBB2002B01D00123E7E0FB68784AA2FB27
:10277C0003239B0CBB607B681B685B6823F03F01E9
:10278C007B681B68BA680A435A607B681B681B6AC3
:10279C0023F03F017B685B686A4A934202D8BB68AE
:1027AC00013309E0BB684FF4967202FB03F3694AEC
:1027BC00A2FB03239B0901337A6812680B43136253
:1027CC007B681B68DB6923F44F4222F0FF027B68B5
:1027DC005B685C498B4219D8FB68591E7B685B6847
:1027EC005B00B1FBF3F3591C40F6FC730B40002B60
:1027FC000AD0FB68591E7B685B685B00B1FBF3F386
:10280C000133C3F30B0351E004234FE07B689B6857
:10281C00002B11D1FB68581E7B6859680B465B0076
:10282C000B44B0FBF3F30133C3F30B03002B0CBFCE
:10283C0001230023DBB212E0FB68581E7B68596849
:10284C000B469B000B4499000B44B0FBF3F3013394
:10285C00C3F30B03002B0CBF01230023DBB2002BB3
:10286C0001D0012322E07B689B68002B0ED1FB6812
:10287C00581E7B6859680B465B000B44B0FBF3F3A6
:10288C000133C3F30B0343F400430FE0FB68581E02
:10289C007B6859680B469B000B4499000B44B0FBBA
:1028AC00F3F30133C3F30B0343F440437968096832
:1028BC001343CB617B681B681B6823F0C0017B68EA
:1028CC00DA697B681B6A1A437B681B680A431A60C7
:1028DC007B681B689B6823F4034323F0FF037A682F
:1028EC0011697A68D26811437A6812680B43936055
:1028FC007B681B68DB6823F0FF017B685A697B6887
:10290C009B691A437B681B680A43DA607B681B6807
:10291C001A687B681B6842F001021A607B6800220F
:10292C001A647B68202283F83D207B6800221A639E
:10293C007B68002283F83E20002318461037BD46E2
:10294C0080BD00BFA08601007F841E00FF083D00F3
:10295C0083DE1B43D34D621080B588B002AFF860A4
:10296C007A601A460B467B8113463B81FFF786FB48
:10297C007861FB6893F83D30DBB2202B40F0E080AF
:10298C007B690093192301227049F86800F064F9FF
:10299C000346002B01D00223D3E0FB6893F83C30B4
:1029AC00012B01D10223CCE0FB68012283F83C20EF
:1029BC00FB681B681B6803F00103012B07D0FB6845
:1029CC001B681A68FB681B6842F001021A60FB68FE
:1029DC001B681A68FB681B6822F400621A60FB68AB
:1029EC00212283F83D20FB68102283F83E20FB68EF
:1029FC0000221A64FB687A685A62FB683A895A8525
:102A0C00FB685B8D9AB2FB681A85FB68504ADA62E8
:102A1C0079897B693A6AF86800F09CF80346002BC8
:102A2C0001D001238DE000233B61FB681B685B69CF
:102A3C003B61FB681B689B693B613B6966E07A699B
:102A4C00396AF86800F022FA0346002B0DD0FB68B7
:102A5C001B6C042B07D1FB681B681A68FB681B688E
:102A6C0042F400721A6001236BE0FB685B6A1A780F
:102A7C00FB681B681A61FB685B6A5A1CFB685A622C
:102A8C00FB685B8D9BB2013B9AB2FB685A85FB6875
:102A9C001B8D013B9AB2FB681A85FB681B685B694E
:102AAC0003F00403042B1BD1FB681B8D002B17D0E8
:102ABC00FB685B6A1A78FB681B681A61FB685B6AC7
:102ACC005A1CFB685A62FB685B8D9BB2013B9AB245
:102ADC00FB685A85FB681B8D013B9AB2FB681A8513
:102AEC007A69396AF86800F019FA0346002B0DD0A0
:102AFC00FB681B6C042B07D1FB681B681A68FB680E
:102B0C001B6842F400721A6001231AE0FB681B8DEB
:102B1C00002B94D1FB681B681A68FB681B6842F495
:102B2C0000721A60FB68202283F83D20FB680022AB
:102B3C0083F83E20FB68002283F83C20002300E051
:102B4C00022318461837BD4680BD00BF0200100096
:102B5C000000FFFF80B588B002AFF8607A603B6080
:102B6C000B467B81FB68DB6A7B617B69082B06D09B
:102B7C007B69012B03D07B6913F5803F08D1FB687F
:102B8C001B681A68FB681B6842F480721A600BE0C1
:102B9C00FB681B6B122B07D1FB681B681A68FB6860
:102BAC001B6842F480721A603B6800937B680022B9
:102BBC004FF00111F86800F04FF80346002B0DD0D0
:102BCC00FB681B681B6803F48073B3F5807F03D12B
:102BDC00FB684FF400721A64032335E0FB681B6931
:102BEC00B3F5804F08D17B89DBB21A46FB681B68B2
:102BFC0002F0FE021A611BE07B89DB11DBB203F0F1
:102C0C000603DBB263F00F03DAB2FB681B681A61D0
:102C1C003B687A680E49F86800F098F80346002B78
:102C2C0001D0012310E07B89DAB2FB681B681A61C2
:102C3C003B687A680749F86800F088F80346002B6F
:102C4C0001D0012300E0002318461837BD4680BD93
:102C5C00080001000200010080B584B000AFF860EC
:102C6C00B9603B601346FB7148E03B68B3F1FF3F32
:102C7C0044D0FFF703FA0246BB69D31A3A689A426A
:102C8C0002D33B68002B39D1BB681B0CDBB2012B88
:102C9C000DD1FB681B685B69DA43BB6813409BB2C0
:102CAC00002B0CBF01230023DBB21A460CE0FB689F
:102CBC001B689B69DA43BB6813409BB2002B0CBFAB
:102CCC0001230023DBB21A46FB799A4216D1FB682A
:102CDC0000221A63FB68202283F83D20FB68002247
:102CEC0083F83E20FB681B6C43F02002FB681A64DF
:102CFC00FB68002283F83C20012323E0BB681B0CFB
:102D0C00DBB2012B0DD1FB681B685B69DA43BB6836
:102D1C0013409BB2002B0CBF01230023DBB21A46DD
:102D2C000CE0FB681B689B69DA43BB6813409BB2E1
:102D3C00002B0CBF01230023DBB21A46FB799A420D
:102D4C0093D0002318461037BD4680BD80B584B0A3
:102D5C0000AFF860B9607A603B6071E0FB681B689B
:102D6C005B6903F48063B3F5806F23D1FB681B6848
:102D7C001A68FB681B6842F400721A60FB681B68D7
:102D8C006FF480625A61FB6800221A63FB68202290
:102D9C0083F83D20FB68002283F83E20FB681B6C07
:102DAC0043F00402FB681A64FB68002283F83C20A1
:102DBC00012367E07B68B3F1FF3F41D0FFF75EF979
:102DCC0002463B68D31A7A689A4202D37B68002B7E
:102DDC0036D1BB681B0CDBB2012B0CD1FB681B681A
:102DEC005B69DA43BB6813409BB2002B14BF012311
:102DFC000023DBB20BE0FB681B689B69DA43BB6802
:102E0C0013409BB2002B14BF01230023DBB2002B19
:102E1C0016D0FB6800221A63FB68202283F83D2041
:102E2C00FB68002283F83E20FB681B6C43F02002F9
:102E3C00FB681A64FB68002283F83C20012321E024
:102E4C00BB681B0CDBB2012B0CD1FB681B685B69EC
:102E5C00DA43BB6813409BB2002B14BF0123002341
:102E6C00DBB20BE0FB681B689B69DA43BB68134061
:102E7C009BB2002B14BF01230023DBB2002B7FF489
:102E8C006DAF002318461037BD4680BD80B584B0A9
:102E9C0000AFF860B9607A6034E0F86800F086F84A
:102EAC000346002B01D0012334E0BB68B3F1FF3F94
:102EBC0028D0FFF7E3F802467B68D31ABA689A4227
:102ECC0002D3BB68002B1DD1FB681B685B6903F048
:102EDC008003802B16D0FB6800221A63FB6820222B
:102EEC0083F83D20FB68002283F83E20FB681B6CB6
:102EFC0043F02002FB681A64FB68002283F83C2034
:102F0C00012307E0FB681B685B6903F08003802BDF
:102F1C00C3D1002318461037BD4680BD80B584B0A0
:102F2C0000AFF860B9607A6034E0F86800F03EF801
:102F3C000346002B01D0012334E0BB68B3F1FF3F03
:102F4C0028D0FFF79BF802467B68D31ABA689A42DE
:102F5C0002D3BB68002B1DD1FB681B685B6903F0B7
:102F6C000403042B16D0FB6800221A63FB68202292
:102F7C0083F83D20FB68002283F83E20FB681B6C25
:102F8C0043F02002FB681A64FB68002283F83C20A3
:102F9C00012307E0FB681B685B6903F00403042B47
:102FAC00C3D1002318461037BD4680BD80B483B012
:102FBC0000AF78607B681B685B6903F48063B3F5D2
:102FCC00806F1BD17B681B686FF480625A617B68D1
:102FDC0000221A637B68202283F83D207B68002244
:102FEC0083F83E207B681B6C43F004027B681A64F8
:102FFC007B68002283F83C20012300E00023184664
:10300C000C37BD4680BC704780B586B000AF786089
:10301C007B68002B01D101236CE27B681B6803F0F9
:10302C000103002B00F08780924B5B6803F00C03CC
:10303C00042B0CD08F4B5B6803F00C03082B12D1C4
:10304C008C4B5B6803F48033B3F5803F0BD1894B19
:10305C001B6803F40033002B6CD07B685B68002B7F
:10306C0068D1012346E27B685B68B3F5803F06D1EB
:10307C00804B1B687F4A43F4803313602EE07B68DF
:10308C005B68002B0CD17B4B1B687A4A23F4803392
:10309C001360784B1B68774A23F4802313601DE080
:1030AC007B685B68B3F5A02F0CD1724B1B68714A1F
:1030BC0043F4802313606F4B1B686E4A43F48033D8
:1030CC0013600BE06B4B1B686A4A23F4803313606C
:1030DC00684B1B68674A23F4802313607B685B682A
:1030EC00002B13D0FEF7CAFF386108E0FEF7C6FFCD
:1030FC0002463B69D31A642B01D90323FAE15D4BD9
:10310C001B6803F40033002BF0D014E0FEF7B6FF7D
:10311C00386108E0FEF7B2FF02463B69D31A642B14
:10312C0001D90323E6E1534B1B6803F40033002B56
:10313C00F0D100E000BF7B681B6803F00203002B9A
:10314C0063D04C4B5B6803F00C03002B0BD0494B4A
:10315C005B6803F00C03082B1CD1464B5B6803F433
:10316C008033002B16D1434B1B6803F00203002B5A
:10317C0005D07B681B69012B01D00123BAE13D4BC3
:10318C001B6823F0F8027B685B69DB003949134349
:10319C000B603AE07B681B69002B20D0364B012278
:1031AC001A60FEF76BFF386108E0FEF767FF024616
:1031BC003B69D31A022B01D903239BE12D4B1B68CE
:1031CC0003F00203002BF0D02A4B1B6823F0F8020B
:1031DC007B685B69DB00274913430B6015E0264BCA
:1031EC0000221A60FEF74AFF386108E0FEF746FF3E
:1031FC0002463B69D31A022B01D903237AE11D4BFA
:10320C001B6803F00203002BF0D17B681B6803F0F2
:10321C000803002B3AD07B689B69002B19D0174B05
:10322C0001221A60FEF72AFF386108E0FEF726FF3C
:10323C0002463B69D31A022B01D903235AE10D4BE9
:10324C005B6A03F00203002BF0D0012000F0CCFAF3
:10325C001CE00A4B00221A60FEF710FF38610FE0E9
:10326C00FEF70CFF02463B69D31A022B08D9032345
:10327C0040E100BF00100240000042428004424284
:10328C009E4B5B6A03F00203002BE9D17B681B6841
:10329C0003F00403002B00F0A6800023FB75974B72
:1032AC00DB6903F08053002B0DD1944BDB69934AFF
:1032BC0043F08053D361914BDB6903F08053BB60C7
:1032CC00BB680123FB758E4B1B6803F48073002BCA
:1032DC0018D18B4B1B688A4A43F480731360FEF73A
:1032EC00CDFE386108E0FEF7C9FE02463B69D31AF1
:1032FC00642B01D90323FDE0814B1B6803F480731D
:10330C00002BF0D07B68DB68012B06D17B4B1B6A52
:10331C007A4A43F0010313622DE07B68DB68002BD3
:10332C000CD1764B1B6A754A23F001031362734B65
:10333C001B6A724A23F0040313621CE07B68DB688F
:10334C00052B0CD16D4B1B6A6C4A43F004031362C2
:10335C006A4B1B6A694A43F0010313620BE0674B2B
:10336C001B6A664A23F001031362644B1B6A634AAF
:10337C0023F0040313627B68DB68002B15D0FEF787
:10338C007DFE38610AE0FEF779FE02463B69D31AEE
:10339C0041F28832934201D90323ABE0574B1B6AAD
:1033AC0003F00203002BEED014E0FEF767FE386149
:1033BC000AE0FEF763FE02463B69D31A41F28832FB
:1033CC00934201D9032395E04C4B1B6A03F0020393
:1033DC00002BEED1FB7D012B05D1484BDB69474A15
:1033EC0023F08053D3617B68DB69002B00F0818074
:1033FC00424B5B6803F00C03082B61D07B68DB69E4
:10340C00022B46D13F4B00221A60FEF737FE386183
:10341C0008E0FEF733FE02463B69D31A022B01D9B2
:10342C00032367E0354B1B6803F00073002BF0D1CE
:10343C007B681B6AB3F5803F08D1304B5B6823F483
:10344C0000327B689B682D4913434B602B4B5B68A8
:10345C0023F474127B68196A7B685B6A0B432749F7
:10346C0013434B60274B01221A60FEF707FE3861AD
:10347C0008E0FEF703FE02463B69D31A022B01D982
:10348C00032337E01D4B1B6803F00073002BF0D0B7
:10349C002FE01C4B00221A60FEF7F0FD386108E0AB
:1034AC00FEF7ECFD02463B69D31A022B01D903232C
:1034BC0020E0124B1B6803F00073002BF0D118E0D6
:1034CC007B68DB69012B01D1012313E00B4B5B689B
:1034DC00FB60FB6803F480327B681B6A9A4206D15E
:1034EC00FB6803F470127B685B6A9A4201D001237B
:1034FC0000E0002318461837BD4680BD001002407E
:10350C00007000406000424280B584B000AF78602B
:10351C0039607B68002B01D10123D0E06A4B1B681A
:10352C0003F007033A689A4210D9674B1B6823F0E3
:10353C00070265493B6813430B60634B1B6803F040
:10354C0007033A689A4201D00123B8E07B681B68F4
:10355C0003F00203002B20D07B681B6803F00403EC
:10356C00002B05D0594B5B68584A43F4E063536019
:10357C007B681B6803F00803002B05D0534B5B687A
:10358C00524A43F460535360504B5B6823F0F00293
:10359C007B689B684D4913434B607B681B6803F049
:1035AC000103002B40D07B685B68012B07D1474B94
:1035BC001B6803F40033002B15D101237FE07B68DB
:1035CC005B68022B07D1414B1B6803F00073002B87
:1035DC0009D1012373E03D4B1B6803F00203002B60
:1035EC0001D101236BE0394B5B6823F003027B684C
:1035FC005B68364913434B60FEF740FDF8600AE008
:10360C00FEF73CFD0246FB68D31A41F28832934226
:10361C0001D9032353E02D4B5B6803F00C027B684C
:10362C005B689B009A42EBD1274B1B6803F00703A6
:10363C003A689A4210D2244B1B6823F007022249A5
:10364C003B6813430B60204B1B6803F007033A687D
:10365C009A4201D0012332E07B681B6803F004031B
:10366C00002B08D0194B5B6823F4E0627B68DB68A5
:10367C00164913434B607B681B6803F00803002B4F
:10368C0009D0124B5B6823F460527B681B69DB002A
:10369C000E4913434B6000F021F802460B4B5B685C
:1036AC001B0903F00F030A49CB5C22FA03F3094A06
:1036BC001360094B1B681846FEF79EFC0023184646
:1036CC001037BD4680BD00BF0020024000100240F4
:1036DC00D84B0008540000205800002080B487B05C
:1036EC0000AF0023FB600023BB6000237B61002341
:1036FC007B6000233B611E4B5B68FB60FB6803F047
:10370C000C03042B02D0082B03D027E0194B3B6190
:10371C0027E0FB689B0C03F00F03174AD35C7B601C
:10372C00FB6803F48033002B10D0114B5B685B0CEF
:10373C0003F00103114AD35CBB607B680D4A02FBAA
:10374C0003F2BB68B2FBF3F37B6104E07B680C4AC9
:10375C0002FB03F37B617B693B6102E0054B3B6140
:10376C0000BF3B6918461C37BD4680BC704700BF84
:10377C000010024000127A00F04B0008004C0008C8
:10378C0000093D0080B400AF024B1B681846BD46D3
:10379C0080BC70475400002080B500AFFFF7F2FFEB
:1037AC000246054B5B681B0A03F007030349CB5C1D
:1037BC0022FA03F3184680BD00100240E84B0008C3
:1037CC0080B500AFFFF7DEFF0246054B5B68DB0AF6
:1037DC0003F007030349CB5C22FA03F3184680BDC0
:1037EC0000100240E84B000880B485B000AF786050
:1037FC000A4B1B680A4AA2FB03235B0A7A6802FB8A
:10380C0003F3FB6000BFFB685A1EFA60002BF9D172
:10381C0000BF00BF1437BD4680BC70475400002069
:10382C00D34D621080B582B000AF78607B68002BFE
:10383C0001D1012341E07B6893F83D30DBB2002BD2
:10384C0006D17B68002283F83C207868FEF7C4F927
:10385C007B68022283F83D207B681A687B680433FE
:10386C001946104600F05CFA7B68012283F846206A
:10387C007B68012283F83E207B68012283F83F207D
:10388C007B68012283F840207B68012283F8412069
:10389C007B68012283F842207B68012283F8432055
:1038AC007B68012283F844207B68012283F8452041
:1038BC007B68012283F83D20002318460837BD465B
:1038CC0080BD000080B485B000AF78607B6893F851
:1038DC003D30DBB2012B01D001233AE07B680222A0
:1038EC0083F83D207B681B68DA687B681B6842F0B4
:1038FC000102DA607B681B68184A93420ED07B6821
:10390C001B68B3F1804F09D07B681B68144A934243
:10391C0004D07B681B68134A934211D17B681B68E7
:10392C009B6803F00703FB60FB68062B10D07B68D9
:10393C001B681A687B681B6842F001021A6007E07A
:10394C007B681B681A687B681B6842F001021A606E
:10395C00002318461437BD4680BC7047002C01402C
:10396C00000400400008004080B584B000AF7860CF
:10397C007B681B68DB68FB607B681B681B69BB6032
:10398C00BB6803F00203002B20D0FB6803F002039A
:10399C00002B1BD07B681B686FF002021A617B68DE
:1039AC0001221A777B681B689B6903F00303002BC9
:1039BC0003D0786800F098F905E0786800F08BF98E
:1039CC00786800F09AF97B6800221A77BB6803F0DC
:1039DC000403002B20D0FB6803F00403002B1BD046
:1039EC007B681B686FF004021A617B6802221A77ED
:1039FC007B681B689B6903F44073002B03D07868C9
:103A0C0000F072F905E0786800F065F9786800F06C
:103A1C0074F97B6800221A77BB6803F00803002B4B
:103A2C0020D0FB6803F00803002B1BD07B681B68BD
:103A3C006FF008021A617B6804221A777B681B6896
:103A4C00DB6903F00303002B03D0786800F04CF91A
:103A5C0005E0786800F03FF9786800F04EF97B6873
:103A6C0000221A77BB6803F01003002B20D0FB68F0
:103A7C0003F01003002B1BD07B681B686FF0100247
:103A8C001A617B6808221A777B681B68DB6903F470
:103A9C004073002B03D0786800F026F905E07868B5
:103AAC0000F019F9786800F028F97B6800221A7781
:103ABC00BB6803F00103002B0CD0FB6803F001037F
:103ACC00002B07D07B681B686FF001021A617868C5
:103ADC00FDF756FEBB6803F08003002B0CD0FB688F
:103AEC0003F08003002B07D07B681B686FF080020B
:103AFC001A61786800F07FFABB6803F04003002B72
:103B0C000CD0FB6803F04003002B07D07B681B68CC
:103B1C006FF040021A61786800F0F8F8BB6803F0A7
:103B2C002003002B0CD0FB6803F02003002B07D0E4
:103B3C007B681B686FF020021A61786800F052FAFB
:103B4C0000BF1037BD4680BD80B584B000AF786033
:103B5C0039600023FB737B6893F83C30012B01D157
:103B6C000223B4E07B68012283F83C207B680222AC
:103B7C0083F83D207B681B689B68BB60BB6823F0A7
:103B8C007703BB60BB6823F47F43BB607B681B6817
:103B9C00BA689A603B681B68B3F5005F3ED0B3F51A
:103BAC00005F00F28780B3F5805F00F08680B3F58C
:103BBC00805F7FD8702B1AD0702B7BD8602B50D0A5
:103BCC00602B77D8502B3CD0502B73D8402B58D02F
:103BDC00402B6FD8302B64D0302B6BD8202B60D07F
:103BEC00202B67D8002B5CD0102B5AD062E07B685E
:103BFC0018683B6899683B685A683B68DB6800F05A
:103C0C0074F97B681B689B68BB60BB6843F07703E7
:103C1C00BB607B681B68BA689A604FE07B68186869
:103C2C003B6899683B685A683B68DB6800F05DF953
:103C3C007B681B689A687B681B6842F480429A60B8
:103C4C003CE07B6818683B6859683B68DB681A463F
:103C5C0000F0D4F87B681B685021184600F02BF953
:103C6C002CE07B6818683B6859683B68DB681A462F
:103C7C0000F0F2F87B681B686021184600F01BF915
:103C8C001CE07B6818683B6859683B68DB681A461F
:103C9C0000F0B4F87B681B684021184600F00BF963
:103CAC000CE07B681A683B681B681946104600F0EC
:103CBC0002F903E00123FB7300E000BF7B680122E3
:103CCC0083F83D207B68002283F83C20FB7B184660
:103CDC001037BD4680BD80B483B000AF786000BFA4
:103CEC000C37BD4680BC704780B483B000AF7860A1
:103CFC0000BF0C37BD4680BC704780B483B000AFAA
:103D0C00786000BF0C37BD4680BC704780B483B070
:103D1C0000AF786000BF0C37BD4680BC7047000018
:103D2C0080B485B000AF786039607B681B68FB603D
:103D3C007B682F4A93420BD07B68B3F1804F07D03E
:103D4C007B682C4A934203D07B682B4A934208D160
:103D5C00FB6823F07003FB603B685B68FA681343F5
:103D6C00FB607B68224A93420BD07B68B3F1804F97
:103D7C0007D07B681F4A934203D07B681E4A93424C
:103D8C0008D1FB6823F44073FB603B68DB68FA687E
:103D9C001343FB60FB6823F080023B685B691343B1
:103DAC00FB607B68FA681A603B689A687B68DA6229
:103DBC003B681A687B689A627B680D4A934203D110
:103DCC003B681A697B681A637B6801225A617B68BD
:103DDC001B6903F00103002B05D07B681B6923F0E2
:103DEC0001027B681A6100BF1437BD4680BC704766
:103DFC00002C0140000400400008004080B487B053
:103E0C0000AFF860B9607A60FB681B6A7B61FB6885
:103E1C001B6A23F00102FB681A62FB689B693B6119
:103E2C003B6923F0F0033B617B681B013A69134348
:103E3C003B617B6923F00A037B617A69BB6813439E
:103E4C007B61FB683A699A61FB687A691A6200BF08
:103E5C001C37BD4680BC704780B487B000AFF8609B
:103E6C00B9607A60FB681B6A7B61FB681B6A23F094
:103E7C001002FB681A62FB689B693B613B6923F487
:103E8C0070433B617B681B033A6913433B617B695D
:103E9C0023F0A0037B61BB681B017A6913437B6130
:103EAC00FB683A699A61FB687A691A6200BF1C3731
:103EBC00BD4680BC704780B485B000AF7860396077
:103ECC007B689B68FB60FB6823F07003FB603A68BF
:103EDC00FB68134343F00703FB607B68FA689A6046
:103EEC0000BF1437BD4680BC704780B487B000AFAC
:103EFC00F860B9607A603B60FB689B687B617B69AA
:103F0C0023F47F437B613B681A027B681A43BB68CE
:103F1C0013437A6913437B61FB687A699A6000BF2B
:103F2C001C37BD4680BC704780B485B000AF78604C
:103F3C0039607B6893F83C30012B01D1022346E0B9
:103F4C007B68012283F83C207B68022283F83D20A9
:103F5C007B681B685B68FB607B681B689B68BB604D
:103F6C00FB6823F07003FB603B681B68FA68134323
:103F7C00FB607B681B68FA685A607B681B68164A92
:103F8C0093420ED07B681B68B3F1804F09D07B68DD
:103F9C001B68124A934204D07B681B68104A9342F8
:103FAC000CD1BB6823F08003BB603B685B68BA68CC
:103FBC001343BB607B681B68BA689A607B680122FC
:103FCC0083F83D207B68002283F83C2000231846B0
:103FDC001437BD4680BC7047002C014000040040E3
:103FEC000008004080B483B000AF786000BF0C378D
:103FFC00BD4680BC704780B483B000AF786000BF12
:10400C000C37BD4680BC704780B582B000AF78607D
:10401C007B68002B01D1012342E07B6893F841308F
:10402C00DBB2002B06D17B68002283F84020786835
:10403C00FDF7F6FD7B68242283F841207B681B6822
:10404C00DA687B681B6822F40052DA60786800F04A
:10405C002BF87B681B681A697B681B6822F49042FA
:10406C001A617B681B685A697B681B6822F02A02FC
:10407C005A617B681B68DA687B681B6842F40052E3
:10408C00DA607B6800225A647B68202283F8412026
:10409C007B68202283F842207B6800225A6300232D
:1040AC0018460837BD4680BD80B584B000AF786037
:1040BC007B681B681B6923F440517B68DA687B685A
:1040CC001B680A431A617B689A687B681B691A43F0
:1040DC007B685B691343BB607B681B68DB6823F4FC
:1040EC00B05323F00C037A681268B9680B43D360A1
:1040FC007B681B685B6923F440717B689A697B68F9
:10410C001B680A435A617B681B682C4A934203D193
:10411C00FFF756FBF86002E0FFF73EFBF860FA6829
:10412C0013469B0013449A001A447B685B689B00FF
:10413C00B2FBF3F3224AA2FB03235B091901FA68D1
:10414C0013469B0013449A001A447B685B689B00DF
:10415C00B2FBF3F21A4BA3FB02035B09642000FBD6
:10416C0003F3D31A1B013233154AA2FB03235B0959
:10417C0003F0F0031944FA6813469B0013449A00A9
:10418C001A447B685B689B00B2FBF3F20C4BA3FBFD
:10419C0002035B09642000FB03F3D31A1B013233C7
:1041AC00074AA2FB03235B0903F00F027B681B6821
:1041BC000A449A6000BF1037BD4680BD00380140EC
:1041CC001F85EB51014B1868704700BF6000002041
:1041DC0070B500260C4D0D4C641BA410A64209D1E1
:1041EC0000F05CFC00260A4D0A4C641BA410A6428D
:1041FC0005D170BD55F8043B98470136EEE755F8EC
:10420C00043B98470136F2E7384C0008384C00085C
:10421C00384C00083C4C000803460244934200D141
:10422C00704703F8011BF9E738B50546002943D060
:10423C0051F8043C0C1F002BB8BFE41800F0CAF86E
:10424C001E4A1368104633B9636014602846BDE8F3
:10425C00384000F0C5B8A3420AD9216862189342CD
:10426C0001BF1A685B685218226063600460EDE756
:10427C001A465B680BB1A342FAD911685018A042D8
:10428C000BD120680144501883421160DED11868AC
:10429C005B68014411605360D8E702D90C232B6092
:1042AC00D4E7206821188B4201BF19685B68091894
:1042BC00216063605460C9E738BD00BFF400002082
:1042CC00F8B5CD1C25F0030508350C2D38BF0C2591
:1042DC00002D064601DBA94203D90C2333600020D4
:1042EC00F8BD00F077F821490A6814469CB9204FB4
:1042FC003B6823B92146304600F03CF8386029462B
:10430C00304600F037F8431C23D10C233046336081
:10431C0000F066F8E3E723685B1B17D40B2B03D97B
:10432C0023601C44256004E06368A2420CBF0B6050
:10433C005360304600F054F804F10B00231D20F0BC
:10434C000700C21ACCD01B1AA350C9E722466468D6
:10435C00CCE7C41C24F00304A042E3D0211A30465D
:10436C0000F008F80130DDD1CFE700BFF4000020E9
:10437C00F800002038B50023054D044608462B6094
:10438C00FDF7C6FC431C02D12B6803B1236038BD7A
:10439C00DC0200200EB46FF0004100B59CB01DABE8
:1043AC0002900690079104910848094953F8042B90
:1043BC000591006802A9019300F074F80022029B99
:1043CC001A701CB05DF804EB03B07047600000205D
:1043DC000802FFFF014800F0FBBA00BFE402002016
:1043EC00014800F0F6BA00BFE40200202DE9F047C6
:1043FC008E6882469E420C4690461F4638D88A8963
:10440C0012F4906F32D0256809690133A5EB0109CC
:10441C0065694B4405EB450505EBD5756D109D4263
:10442C0038BF1D46530531D52946FFF749FF0646CF
:10443C0050B90C234FF0FF30CAF80030A38943F079
:10444C004003A381BDE8F0874A46216900F0D0FA09
:10445C00A38923F4906343F08003A38126614E4427
:10446C0026603E466561A5EB0905A560BE4200D9F4
:10447C003E4632464146206800F0C8FAA3682268DE
:10448C009B1B32440020A3602260DBE72A4600F02D
:10449C00D7FA06460028E1D150462169FFF7C4FE41
:1044AC00C7E700002DE9F04F98468B8907461B069D
:1044BC000D4614469DB00ED50B6963B94021FFF72C
:1044CC00FFFE2860286120B90C233B604FF0FF30C1
:1044DC00D1E040236B610023099320238DF8293010
:1044EC0030234FF00109CDF80C80DFF8A4818DF852
:1044FC002A3023469A4613F8012B0AB1252AF9D102
:10450C00BAEB040B0BD05B46224629463846FFF724
:10451C006DFF013000F0AA80099A5A4409929AF86A
:10452C000030002B00F0A28000234FF0FF32CDE9C9
:10453C0005230AF1010A049307938DF853301A935B
:10454C005446052214F8011B514800F043FA049A12
:10455C00D8B9D00644BF20238DF85330110744BF7F
:10456C002B238DF853309AF800302A2B15D0544653
:10457C0000204FF00A0C079A214611F8013B303B02
:10458C00092B4ED9B0B1079214E0A0EB080309FA3D
:10459C0003F31343A2460493D2E7039B191D1B6834
:1045AC000391002BBBBF5B4242F0020207930793BF
:1045BC00B8BF049223782E2B0CD163782A2B35D1DB
:1045CC00039B02341A1D1B680392002BB8BF4FF0DB
:1045DC00FF330593DFF8C8A003225046217800F082
:1045EC00F9F940B14023A0EB0A0003FA00F0049B58
:1045FC0001340343049314F8011B062225488DF85B
:10460C00281000F0E7F9002838D0234B1BBB039B84
:10461C00073323F0070308330393099B33440993AF
:10462C0067E70C4601200CFB0232A5E700234FF094
:10463C000A0C194601340593204610F8012B303A28
:10464C00092A03D9002BC5D00591C3E704460123E1
:10465C000CFB0121F0E703AB00932A4638460F4BC5
:10466C0004A9AFF30080421C0646D6D1AB895B0689
:10467C003FF52CAF09981DB0BDE8F08F03AB00934C
:10468C002A463846054B04A900F07CF8EBE700BF3E
:10469C00024C00080C4C000800000000F943000814
:1046AC00084C00082DE9F047164699468A680B69B4
:1046BC0007469342B8BF1346336091F843200C462B
:1046CC00DDF820800AB1013333602368990642BFBC
:1046DC00336802333360256815F0060506D104F102
:1046EC00190AE36832689B1AAB4228DC94F8432021
:1046FC00131E226818BF012392062DD44946384652
:10470C0004F14302C047013020D02368E56803F070
:10471C000603042B18BF002532684FF00006A3686F
:10472C0008BFAD1A226908BF25EAE5759342C4BFDC
:10473C009B1AED181A34B5421AD1002008E0012357
:10474C00524649463846C047013003D14FF0FF303E
:10475C00BDE8F0870135C4E73020E11881F843004B
:10476C005A1C94F845102244023382F84310C5E7D2
:10477C000123224649463846C0470130E6D001366F
:10478C00D9E700002DE9FF470C46277E9146782F8C
:10479C0080469A460C9904F1430207D8622F0AD836
:1047AC00002F00F0D980582F00F0A48004F14206AD
:1047BC0084F842703AE0A7F16303152BF6D801A0F8
:1047CC0050F823F0294800083D480008B947000874
:1047DC00B9470008B9470008B94700083D48000828
:1047EC00B9470008B9470008B9470008B94700089D
:1047FC004B4900086D4800082D490008B9470008CE
:10480C00B94700086D490008B94700086D48000811
:10481C00B9470008B9470008354900080B6804F18E
:10482C0042061A1D1B680A6084F842300123A4E07A
:10483C00256808682E0600F104030AD505680B608C
:10484C00002D03DA2D236D4284F843300A235E4891
:10485C0019E015F0400F05680B6018BF2DB2EFE79B
:10486C000B682568181D0860280601D51D6802E034
:10487C006906FBD51D886F2F0CBF08230A235248ED
:10488C00002184F843106668002EA8BF2168A6603A
:10489C00A4BF21F0040121600DB9002E4DD01646A5
:1048AC00B5FBF3F103FB1157C75D06F8017D2F46ED
:1048BC00BB420D46F4D9082B0BD12368DF0708D572
:1048CC00236961689942DEBF302306F8013C06F18A
:1048DC00FF36921B22614B4621464046CDF800A084
:1048EC0003AAFFF7DFFE01304CD14FF0FF3004B0CC
:1048FC00BDE8F087344884F845700E68236856F894
:10490C00045B1F060E6014D5D90744BF43F0200387
:10491C0023601DB9236823F0200323601023AFE725
:10492C00236843F0200323607823284884F845301B
:10493C00E3E75E0648BFADB2E6E71646BBE70B6899
:10494C0026681D1D60690D6035061B6801D5186051
:10495C0002E07106FBD51880002316462361BAE7E6
:10496C000B681A1D0A601E6800213046626800F050
:10497C0031F808B1801B606063682361002384F800
:10498C004330A8E73246494640462369D0470130B8
:10499C00ABD023689B0713D4E068039B9842B8BF45
:1049AC001846A4E70123324649464046D047013019
:1049BC009BD00135E36803995B1AAB42F2DCEBE761
:1049CC00002504F11906F5E7134C0008244C0008E7
:1049DC0070477047034610B5C9B20244934218465B
:1049EC0001D1002003E0047801338C42F6D110BDD4
:1049FC000A44914200F1FF3300D1704710B511F811
:104A0C00014B914203F8014FF9D110BD884210B50A
:104A1C0001EB020402D98442234607D8431EA1426B
:104A2C0008D011F8012B03F8012FF8E701460244D6
:104A3C008A4200D110BD13F8014D02F8014DF7E781
:104A4C00F8B5074614460E4621B91146BDE8F840A4
:104A5C00FFF736BC22B9FFF7E7FB25462846F8BD21
:104A6C0000F014F8A0420FD221463846FFF728FC7C
:104A7C0005460028F2D031462246FFF7B9FF3146F1
:104A8C003846FFF7D1FBE9E73546E7E751F8043C38
:104A9C00181F002BBCBF0B58C0187047F8B500BFCF
:104AAC00F8BC08BC9E467047F8B500BFF8BC08BC03
:044ABC009E4670475B
:104AC00054726166666963583A20302564000000BC
:104AD00054726166666963583A20256400000000DC
:104AE00054726166666963593A203025640000009B
:104AF00054726166666963593A20256400000000BB
:104B00004D616E75616C204D6F646500526564582F
:104B1000202D20477265656E59000000526564586B
:104B2000202D20416D626572590000004772656555
:104B30006E58202D2052656459000000416D626559
:104B40007258202D2052656459000000536574741A
:104B5000696E6720526564004D6F64653A322C744B
:104B6000696D653A302564004D6F64653A322C7486
:104B7000696D653A2564000053657474696E672039
:104B8000416D6265720000004D6F64653A332C74AC
:104B9000696D653A302564004D6F64653A332C7455
:104BA000696D653A2564000053657474696E672009
:104BB000477265656E0000004D6F64653A342C7471
:104BC000696D653A302564004D6F64653A342C7424
:104BD000696D653A256400000000000000000000D7
:104BE0000102030406070809000000000102030493
:104BF00002030405060708090A0B0C0D0E0F10101E
:104C00000102232D302B2000686C4C00656667453F
:104C10004647003031323334353637383941424334
:104C200044454600303132333435363738396162E5
:084C30006364656600000000EA
:044C3800310100083E
:044C3C000D0100085E
:104C40000100000001000000010000000100000060
:104C50000100000001000000010000000100000050
:104C60000100000001000000010000000100000040
:104C70006400000064000000640000000500000003
:104C8000080000000300000005000000080000000C
:104C90000300000000127A00100000000100000074
:104CA0006400002000000000000000000000000080
:104CB00000000000000000000000000000000000F4
:104CC00000000000000000000000000000000000E4
:104CD00000000000000000000000000000000000D4
:104CE00000000000000000000000000000000000C4
:104CF00000000000000000000000000000000000B4
:044D000000000000AF
:0400000508001F8D43
:00000001FF
